{
  "contractName": "Campaign",
  "abi": [
    {
      "inputs": [
        {
          "internalType": "string",
          "name": "_campaignName",
          "type": "string"
        },
        {
          "internalType": "string",
          "name": "_description",
          "type": "string"
        },
        {
          "internalType": "uint256",
          "name": "_fundingGoal",
          "type": "uint256"
        },
        {
          "internalType": "uint256",
          "name": "_expiry",
          "type": "uint256"
        },
        {
          "internalType": "address",
          "name": "_creator",
          "type": "address"
        },
        {
          "internalType": "address",
          "name": "_crowdfundTokenAddress",
          "type": "address"
        }
      ],
      "stateMutability": "nonpayable",
      "type": "constructor"
    },
    {
      "inputs": [],
      "name": "CAMPAIGN_EXPIRED",
      "type": "error"
    },
    {
      "inputs": [],
      "name": "COMPLETELY_FUNDED",
      "type": "error"
    },
    {
      "inputs": [],
      "name": "NOT_COMPLETELY_FUNDED",
      "type": "error"
    },
    {
      "inputs": [],
      "name": "NOT_EXPIRED",
      "type": "error"
    },
    {
      "anonymous": false,
      "inputs": [
        {
          "indexed": false,
          "internalType": "uint256",
          "name": "amount",
          "type": "uint256"
        },
        {
          "indexed": false,
          "internalType": "address",
          "name": "investor",
          "type": "address"
        }
      ],
      "name": "fundsRecieved",
      "type": "event"
    },
    {
      "anonymous": false,
      "inputs": [
        {
          "indexed": false,
          "internalType": "address",
          "name": "investor",
          "type": "address"
        },
        {
          "indexed": false,
          "internalType": "uint256",
          "name": "amount",
          "type": "uint256"
        }
      ],
      "name": "fundsRefundedToInvestor",
      "type": "event"
    },
    {
      "anonymous": false,
      "inputs": [
        {
          "indexed": false,
          "internalType": "uint256",
          "name": "time",
          "type": "uint256"
        }
      ],
      "name": "fundsWithdrawnByCreator",
      "type": "event"
    },
    {
      "inputs": [],
      "name": "CampaignName",
      "outputs": [
        {
          "internalType": "string",
          "name": "",
          "type": "string"
        }
      ],
      "stateMutability": "view",
      "type": "function"
    },
    {
      "inputs": [],
      "name": "Creator",
      "outputs": [
        {
          "internalType": "address",
          "name": "",
          "type": "address"
        }
      ],
      "stateMutability": "view",
      "type": "function"
    },
    {
      "inputs": [],
      "name": "CrowdfundTokenAddress",
      "outputs": [
        {
          "internalType": "address",
          "name": "",
          "type": "address"
        }
      ],
      "stateMutability": "view",
      "type": "function"
    },
    {
      "inputs": [],
      "name": "Description",
      "outputs": [
        {
          "internalType": "string",
          "name": "",
          "type": "string"
        }
      ],
      "stateMutability": "view",
      "type": "function"
    },
    {
      "inputs": [],
      "name": "Expiry",
      "outputs": [
        {
          "internalType": "uint256",
          "name": "",
          "type": "uint256"
        }
      ],
      "stateMutability": "view",
      "type": "function"
    },
    {
      "inputs": [],
      "name": "FundingGoal",
      "outputs": [
        {
          "internalType": "uint256",
          "name": "",
          "type": "uint256"
        }
      ],
      "stateMutability": "view",
      "type": "function"
    },
    {
      "inputs": [],
      "name": "MaxInvestment",
      "outputs": [
        {
          "internalType": "uint256",
          "name": "",
          "type": "uint256"
        }
      ],
      "stateMutability": "view",
      "type": "function"
    },
    {
      "inputs": [],
      "name": "TotalAmountOfFundRaised",
      "outputs": [
        {
          "internalType": "uint256",
          "name": "",
          "type": "uint256"
        }
      ],
      "stateMutability": "view",
      "type": "function"
    },
    {
      "inputs": [],
      "name": "isWithdrawn",
      "outputs": [
        {
          "internalType": "bool",
          "name": "",
          "type": "bool"
        }
      ],
      "stateMutability": "view",
      "type": "function"
    },
    {
      "inputs": [
        {
          "internalType": "uint256",
          "name": "_amount",
          "type": "uint256"
        }
      ],
      "name": "invest",
      "outputs": [],
      "stateMutability": "nonpayable",
      "type": "function"
    },
    {
      "inputs": [],
      "name": "withdrawFunds",
      "outputs": [],
      "stateMutability": "nonpayable",
      "type": "function"
    },
    {
      "inputs": [],
      "name": "getRefund",
      "outputs": [],
      "stateMutability": "nonpayable",
      "type": "function"
    }
  ],
  "bytecode": "0x60806040523480156200001157600080fd5b506040516200183738038062001837833981810160405281019062000037919062000282565b816000806101000a81548173ffffffffffffffffffffffffffffffffffffffff021916908373ffffffffffffffffffffffffffffffffffffffff16021790555085600190805190602001906200008f92919062000126565b508460029080519060200190620000a892919062000126565b508360038190555082600481905550836006819055506000600760146101000a81548160ff02191690831515021790555080600760006101000a81548173ffffffffffffffffffffffffffffffffffffffff021916908373ffffffffffffffffffffffffffffffffffffffff16021790555050505050505062000552565b82805462000134906200042f565b90600052602060002090601f016020900481019282620001585760008555620001a4565b82601f106200017357805160ff1916838001178555620001a4565b82800160010185558215620001a4579182015b82811115620001a357825182559160200191906001019062000186565b5b509050620001b39190620001b7565b5090565b5b80821115620001d2576000816000905550600101620001b8565b5090565b6000620001ed620001e78462000385565b6200035c565b9050828152602081018484840111156200020c576200020b620004fe565b5b62000219848285620003f9565b509392505050565b60008151905062000232816200051e565b92915050565b600082601f83011262000250576200024f620004f9565b5b815162000262848260208601620001d6565b91505092915050565b6000815190506200027c8162000538565b92915050565b60008060008060008060c08789031215620002a257620002a162000508565b5b600087015167ffffffffffffffff811115620002c357620002c262000503565b5b620002d189828a0162000238565b965050602087015167ffffffffffffffff811115620002f557620002f462000503565b5b6200030389828a0162000238565b95505060406200031689828a016200026b565b94505060606200032989828a016200026b565b93505060806200033c89828a0162000221565b92505060a06200034f89828a0162000221565b9150509295509295509295565b6000620003686200037b565b905062000376828262000465565b919050565b6000604051905090565b600067ffffffffffffffff821115620003a357620003a2620004ca565b5b620003ae826200050d565b9050602081019050919050565b6000620003c882620003cf565b9050919050565b600073ffffffffffffffffffffffffffffffffffffffff82169050919050565b6000819050919050565b60005b8381101562000419578082015181840152602081019050620003fc565b8381111562000429576000848401525b50505050565b600060028204905060018216806200044857607f821691505b602082108114156200045f576200045e6200049b565b5b50919050565b62000470826200050d565b810181811067ffffffffffffffff82111715620004925762000491620004ca565b5b80604052505050565b7f4e487b7100000000000000000000000000000000000000000000000000000000600052602260045260246000fd5b7f4e487b7100000000000000000000000000000000000000000000000000000000600052604160045260246000fd5b600080fd5b600080fd5b600080fd5b600080fd5b6000601f19601f8301169050919050565b6200052981620003bb565b81146200053557600080fd5b50565b6200054381620003ef565b81146200054f57600080fd5b50565b6112d580620005626000396000f3fe608060405234801561001057600080fd5b50600436106100b45760003560e01c80636c259a57116100715780636c259a57146101575780636df793f2146101755780637e7cd1b3146101935780638191745f146101b157806386199769146101cf578063b2d5ae44146101ed576100b4565b806306621dec146100b957806318bee97e146100d757806324600fc3146100f55780632afcf480146100ff57806344aa57001461011b5780634e48138714610139575b600080fd5b6100c16101f7565b6040516100ce9190610e8c565b60405180910390f35b6100df6101fd565b6040516100ec9190610d14565b60405180910390f35b6100fd610221565b005b61011960048036038101906101149190610baf565b6104bb565b005b61012361072e565b6040516101309190610d8f565b60405180910390f35b610141610741565b60405161014e9190610e8c565b60405180910390f35b61015f610747565b60405161016c9190610d14565b60405180910390f35b61017d61076d565b60405161018a9190610e8c565b60405180910390f35b61019b610773565b6040516101a89190610daa565b60405180910390f35b6101b9610801565b6040516101c69190610daa565b60405180910390f35b6101d761088f565b6040516101e49190610e8c565b60405180910390f35b6101f5610895565b005b60055481565b60008054906101000a900473ffffffffffffffffffffffffffffffffffffffff1681565b60008054906101000a900473ffffffffffffffffffffffffffffffffffffffff1673ffffffffffffffffffffffffffffffffffffffff163373ffffffffffffffffffffffffffffffffffffffff16146102af576040517f08c379a00000000000000000000000000000000000000000000000000000000081526004016102a690610e4c565b60405180910390fd5b42600454106102ea576040517f806dd6f900000000000000000000000000000000000000000000000000000000815260040160405180910390fd5b60055460035414610327576040517f0b800d8a00000000000000000000000000000000000000000000000000000000815260040160405180910390fd5b60001515600760149054906101000a900460ff1615151461037d576040517f08c379a000000000000000000000000000000000000000000000000000000000815260040161037490610e6c565b60405180910390fd5b6000600760009054906101000a900473ffffffffffffffffffffffffffffffffffffffff1673ffffffffffffffffffffffffffffffffffffffff166323b872dd3060008054906101000a900473ffffffffffffffffffffffffffffffffffffffff166005546040518463ffffffff1660e01b815260040161040093929190610d2f565b602060405180830381600087803b15801561041a57600080fd5b505af115801561042e573d6000803e3d6000fd5b505050506040513d601f19601f820116820180604052508101906104529190610b82565b90508061045e57600080fd5b60006006819055506001600760146101000a81548160ff0219169083151502179055507f9de6ef48940124ce21ebada74df10844d75ca832a0412b522db70a71246487a9426040516104b09190610e8c565b60405180910390a150565b42600454116104f6576040517f1416cd8300000000000000000000000000000000000000000000000000000000815260040160405180910390fd5b6005546003541415610534576040517fc1bcc38800000000000000000000000000000000000000000000000000000000815260040160405180910390fd5b60008111610577576040517f08c379a000000000000000000000000000000000000000000000000000000000815260040161056e90610e2c565b60405180910390fd5b6006548111156105bc576040517f08c379a00000000000000000000000000000000000000000000000000000000081526004016105b390610e0c565b60405180910390fd5b6000600760009054906101000a900473ffffffffffffffffffffffffffffffffffffffff1673ffffffffffffffffffffffffffffffffffffffff166323b872dd3330856040518463ffffffff1660e01b815260040161061d93929190610d2f565b602060405180830381600087803b15801561063757600080fd5b505af115801561064b573d6000803e3d6000fd5b505050506040513d601f19601f8201168201806040525081019061066f9190610b82565b90508061067b57600080fd5b816005600082825461068d9190610eec565b9250508190555081600660008282546106a69190610f42565b9250508190555081600860003373ffffffffffffffffffffffffffffffffffffffff1673ffffffffffffffffffffffffffffffffffffffff168152602001908152602001600020819055507f9efb7bee1818185076cae55cfdf66d6fbde3b5aef8d1f2340ad24eb6b8c6540c8233604051610722929190610ea7565b60405180910390a15050565b600760149054906101000a900460ff1681565b60065481565b600760009054906101000a900473ffffffffffffffffffffffffffffffffffffffff1681565b60045481565b6001805461078090610ff1565b80601f01602080910402602001604051908101604052809291908181526020018280546107ac90610ff1565b80156107f95780601f106107ce576101008083540402835291602001916107f9565b820191906000526020600020905b8154815290600101906020018083116107dc57829003601f168201915b505050505081565b6002805461080e90610ff1565b80601f016020809104026020016040519081016040528092919081815260200182805461083a90610ff1565b80156108875780601f1061085c57610100808354040283529160200191610887565b820191906000526020600020905b81548152906001019060200180831161086a57829003601f168201915b505050505081565b60035481565b6000600860003373ffffffffffffffffffffffffffffffffffffffff1673ffffffffffffffffffffffffffffffffffffffff168152602001908152602001600020541415610918576040517f08c379a000000000000000000000000000000000000000000000000000000000815260040161090f90610dec565b60405180910390fd5b4260045410610953576040517f806dd6f900000000000000000000000000000000000000000000000000000000815260040160405180910390fd5b600354600554141561099a576040517f08c379a000000000000000000000000000000000000000000000000000000000815260040161099190610dcc565b60405180910390fd5b6000600760009054906101000a900473ffffffffffffffffffffffffffffffffffffffff1673ffffffffffffffffffffffffffffffffffffffff166323b872dd3033600860003373ffffffffffffffffffffffffffffffffffffffff1673ffffffffffffffffffffffffffffffffffffffff168152602001908152602001600020546040518463ffffffff1660e01b8152600401610a3a93929190610d2f565b602060405180830381600087803b158015610a5457600080fd5b505af1158015610a68573d6000803e3d6000fd5b505050506040513d601f19601f82011682018060405250810190610a8c9190610b82565b905080610a9857600080fd5b6000600860003373ffffffffffffffffffffffffffffffffffffffff1673ffffffffffffffffffffffffffffffffffffffff168152602001908152602001600020819055507f08d2dc0783d8a5634dd5b6db3f7f19117fbad8bf7f7c04055f4927eb27ac4f8733600860003373ffffffffffffffffffffffffffffffffffffffff1673ffffffffffffffffffffffffffffffffffffffff16815260200190815260200160002054604051610b4d929190610d66565b60405180910390a150565b600081519050610b6781611271565b92915050565b600081359050610b7c81611288565b92915050565b600060208284031215610b9857610b97611081565b5b6000610ba684828501610b58565b91505092915050565b600060208284031215610bc557610bc4611081565b5b6000610bd384828501610b6d565b91505092915050565b610be581610f76565b82525050565b610bf481610f88565b82525050565b6000610c0582610ed0565b610c0f8185610edb565b9350610c1f818560208601610fbe565b610c2881611086565b840191505092915050565b6000610c40603483610edb565b9150610c4b82611097565b604082019050919050565b6000610c63601883610edb565b9150610c6e826110e6565b602082019050919050565b6000610c86604b83610edb565b9150610c918261110f565b606082019050919050565b6000610ca9602283610edb565b9150610cb482611184565b604082019050919050565b6000610ccc602c83610edb565b9150610cd7826111d3565b604082019050919050565b6000610cef602483610edb565b9150610cfa82611222565b604082019050919050565b610d0e81610fb4565b82525050565b6000602082019050610d296000830184610bdc565b92915050565b6000606082019050610d446000830186610bdc565b610d516020830185610bdc565b610d5e6040830184610d05565b949350505050565b6000604082019050610d7b6000830185610bdc565b610d886020830184610d05565b9392505050565b6000602082019050610da46000830184610beb565b92915050565b60006020820190508181036000830152610dc48184610bfa565b905092915050565b60006020820190508181036000830152610de581610c33565b9050919050565b60006020820190508181036000830152610e0581610c56565b9050919050565b60006020820190508181036000830152610e2581610c79565b9050919050565b60006020820190508181036000830152610e4581610c9c565b9050919050565b60006020820190508181036000830152610e6581610cbf565b9050919050565b60006020820190508181036000830152610e8581610ce2565b9050919050565b6000602082019050610ea16000830184610d05565b92915050565b6000604082019050610ebc6000830185610d05565b610ec96020830184610bdc565b9392505050565b600081519050919050565b600082825260208201905092915050565b6000610ef782610fb4565b9150610f0283610fb4565b9250827fffffffffffffffffffffffffffffffffffffffffffffffffffffffffffffffff03821115610f3757610f36611023565b5b828201905092915050565b6000610f4d82610fb4565b9150610f5883610fb4565b925082821015610f6b57610f6a611023565b5b828203905092915050565b6000610f8182610f94565b9050919050565b60008115159050919050565b600073ffffffffffffffffffffffffffffffffffffffff82169050919050565b6000819050919050565b60005b83811015610fdc578082015181840152602081019050610fc1565b83811115610feb576000848401525b50505050565b6000600282049050600182168061100957607f821691505b6020821081141561101d5761101c611052565b5b50919050565b7f4e487b7100000000000000000000000000000000000000000000000000000000600052601160045260246000fd5b7f4e487b7100000000000000000000000000000000000000000000000000000000600052602260045260246000fd5b600080fd5b6000601f19601f8301169050919050565b7f576974686472617720686173206265656e20646961626c65642061732074686560008201527f2066756e64696e6720676f616c206973206d6574000000000000000000000000602082015250565b7f596f7520617265206e6f7420616e20696e766573746f72210000000000000000600082015250565b7f506c6561736520636865636b204d6178496e766573746d656e7420746f20736560008201527f65207768617420697320746865206d6178696d756d20616d6f756e7420796f7560208201527f2063616e20696e76657374000000000000000000000000000000000000000000604082015250565b7f416d6f756e742073686f756c642062652067726561746572207468616e207a6560008201527f726f000000000000000000000000000000000000000000000000000000000000602082015250565b7f596f7520617265206e6f7420617574686f72697a656420746f2063616c6c207460008201527f6869732066756e6374696f6e0000000000000000000000000000000000000000602082015250565b7f596f75206861766520616c72656164792077697468647261776e20746865206660008201527f756e647300000000000000000000000000000000000000000000000000000000602082015250565b61127a81610f88565b811461128557600080fd5b50565b61129181610fb4565b811461129c57600080fd5b5056fea26469706673582212200779d16b26a553cbc0f1cfdb3f4b535cbb71fed9c21288221a989967d6bdca3f64736f6c63430008060033",
  "immutableReferences": {},
  "source": "// SPDX-License-Identifier: UNLICENCED\npragma solidity 0.8.6;\n\nimport \"@openzeppelin/contracts/token/ERC20/IERC20.sol\";\n\n// Errors\nerror CAMPAIGN_EXPIRED();\nerror COMPLETELY_FUNDED();\nerror NOT_COMPLETELY_FUNDED();\nerror NOT_EXPIRED();\n\ncontract Campaign{\n    \n    // Events\n    event fundsRecieved(uint amount,address investor);\n    event fundsWithdrawnByCreator(uint time);\n    event fundsRefundedToInvestor(address investor,uint amount);\n\n    address public Creator;\n    string public CampaignName;\n    string public Description;\n    uint public FundingGoal; \n    uint public Expiry;\n    uint public TotalAmountOfFundRaised;\n    uint public MaxInvestment;\n    address public CrowdfundTokenAddress;\n    bool public isWithdrawn;\n    \n    // Maps the address of the investor to the amount\n    mapping(address => uint) investors;\n\n\n    modifier notExpired() {\n        if(Expiry <= block.timestamp){\n            revert CAMPAIGN_EXPIRED();\n        }\n        else{\n            _;\n        }\n    }\n    \n    modifier notCompletelyFunded() {\n        if(FundingGoal == TotalAmountOfFundRaised){\n            revert COMPLETELY_FUNDED();\n        }\n        else{\n            _;\n        }\n    }\n\n    modifier contractExpired() {\n        if(Expiry >= block.timestamp){\n            revert NOT_EXPIRED();\n        }\n        else{\n            _;\n        }\n    }\n\n    modifier completelyFunded() {\n        if(FundingGoal != TotalAmountOfFundRaised){\n            revert NOT_COMPLETELY_FUNDED();\n        }\n        else{\n            _;\n        }\n    }\n\n    modifier onlyCreator() {\n        require(msg.sender == Creator,\"You are not authorized to call this function\");\n        _;\n    }\n\n    modifier onlyInvestor() {\n        require(investors[msg.sender] !=0 ,\"You are not an investor!\");\n        _;\n    }\n\n    constructor(string memory _campaignName, string memory _description, uint _fundingGoal, uint _expiry, address _creator, address _crowdfundTokenAddress){\n        Creator = _creator;\n        CampaignName = _campaignName;\n        Description = _description;\n        FundingGoal = _fundingGoal;\n        Expiry = _expiry;\n        MaxInvestment = _fundingGoal; \n        isWithdrawn = false;\n        CrowdfundTokenAddress = _crowdfundTokenAddress;\n    }\n\n    function invest(uint _amount) external notExpired notCompletelyFunded {\n        require(_amount > 0,\"Amount should be greater than zero\");\n        require(_amount <= MaxInvestment,\"Please check MaxInvestment to see what is the maximum amount you can invest\");\n        bool success = IERC20(CrowdfundTokenAddress).transferFrom(msg.sender, address(this), _amount);\n        require(success);\n        TotalAmountOfFundRaised += _amount;\n        MaxInvestment -= _amount;\n        investors[msg.sender] = _amount;\n        emit fundsRecieved(_amount,msg.sender);\n    }\n\n    function withdrawFunds() external onlyCreator contractExpired completelyFunded {\n        require(isWithdrawn == false,\"You have already withdrawn the funds\");\n        bool success = IERC20(CrowdfundTokenAddress).transferFrom(address(this), Creator, TotalAmountOfFundRaised);\n        require(success);\n        MaxInvestment=0;\n        isWithdrawn = true;\n        emit fundsWithdrawnByCreator(block.timestamp);\n    }\n\n    function getRefund() external onlyInvestor contractExpired {\n        require(TotalAmountOfFundRaised != FundingGoal,\"Withdraw has been diabled as the funding goal is met\");\n        bool success = IERC20(CrowdfundTokenAddress).transferFrom(address(this), msg.sender, investors[msg.sender]);\n        require(success);\n        investors[msg.sender] = 0;\n        emit fundsRefundedToInvestor(msg.sender,investors[msg.sender]);\n    }\n}\n",
  "sourcePath": "/home/adibhagavath/blockchain/metacrafters/metacrafters_challenge/contracts/Campaign.sol",
  "compiler": {
    "name": "solc",
    "version": "0.8.6+commit.11564f7e.Emscripten.clang"
  },
  "schemaVersion": "3.4.11",
  "updatedAt": "2023-01-04T18:00:10.982Z",
  "devdoc": {
    "kind": "dev",
    "methods": {},
    "version": 1
  },
  "userdoc": {
    "kind": "user",
    "methods": {},
    "version": 1
  }
}